{
  "contractName": "MedicalRecord",
  "abi": [
    {
      "inputs": [
        {
          "internalType": "bytes32",
          "name": "",
          "type": "bytes32"
        }
      ],
      "name": "records",
      "outputs": [
        {
          "internalType": "string",
          "name": "patientName",
          "type": "string"
        },
        {
          "internalType": "string",
          "name": "hospitalName",
          "type": "string"
        },
        {
          "internalType": "string",
          "name": "dateOfEstablishment",
          "type": "string"
        },
        {
          "internalType": "string",
          "name": "recordDescription",
          "type": "string"
        },
        {
          "internalType": "uint256",
          "name": "versionNumber",
          "type": "uint256"
        }
      ],
      "stateMutability": "view",
      "type": "function"
    },
    {
      "inputs": [
        {
          "internalType": "bytes32",
          "name": "hash",
          "type": "bytes32"
        },
        {
          "internalType": "string",
          "name": "patientName",
          "type": "string"
        },
        {
          "internalType": "string",
          "name": "hospitalName",
          "type": "string"
        },
        {
          "internalType": "string",
          "name": "dateOfEstablishment",
          "type": "string"
        },
        {
          "internalType": "string",
          "name": "recordDescription",
          "type": "string"
        },
        {
          "internalType": "uint256",
          "name": "versionNumber",
          "type": "uint256"
        }
      ],
      "name": "addRecord",
      "outputs": [],
      "stateMutability": "nonpayable",
      "type": "function"
    },
    {
      "inputs": [
        {
          "internalType": "bytes32",
          "name": "hash",
          "type": "bytes32"
        }
      ],
      "name": "getRecord",
      "outputs": [
        {
          "components": [
            {
              "internalType": "string",
              "name": "patientName",
              "type": "string"
            },
            {
              "internalType": "string",
              "name": "hospitalName",
              "type": "string"
            },
            {
              "internalType": "string",
              "name": "dateOfEstablishment",
              "type": "string"
            },
            {
              "internalType": "string",
              "name": "recordDescription",
              "type": "string"
            },
            {
              "internalType": "uint256",
              "name": "versionNumber",
              "type": "uint256"
            }
          ],
          "internalType": "struct MedicalRecord.Record",
          "name": "",
          "type": "tuple"
        }
      ],
      "stateMutability": "view",
      "type": "function"
    }
  ],
  "bytecode": "0x608060405234801561000f575f80fd5b50610e1a8061001d5f395ff3fe608060405234801561000f575f80fd5b506004361061003f575f3560e01c806301e6472514610043578063213681cd14610077578063c1785cc0146100a7575b5f80fd5b61005d60048036038101906100589190610693565b6100c3565b60405161006e959493929190610760565b60405180910390f35b610091600480360381019061008c9190610693565b61030c565b60405161009e91906108ac565b60405180910390f35b6100c160048036038101906100bc9190610a22565b61057f565b005b5f602052805f5260405f205f91509050805f0180546100e190610b48565b80601f016020809104026020016040519081016040528092919081815260200182805461010d90610b48565b80156101585780601f1061012f57610100808354040283529160200191610158565b820191905f5260205f20905b81548152906001019060200180831161013b57829003601f168201915b50505050509080600101805461016d90610b48565b80601f016020809104026020016040519081016040528092919081815260200182805461019990610b48565b80156101e45780601f106101bb576101008083540402835291602001916101e4565b820191905f5260205f20905b8154815290600101906020018083116101c757829003601f168201915b5050505050908060020180546101f990610b48565b80601f016020809104026020016040519081016040528092919081815260200182805461022590610b48565b80156102705780601f1061024757610100808354040283529160200191610270565b820191905f5260205f20905b81548152906001019060200180831161025357829003601f168201915b50505050509080600301805461028590610b48565b80601f01602080910402602001604051908101604052809291908181526020018280546102b190610b48565b80156102fc5780601f106102d3576101008083540402835291602001916102fc565b820191905f5260205f20905b8154815290600101906020018083116102df57829003601f168201915b5050505050908060040154905085565b610314610621565b5f808381526020019081526020015f206040518060a00160405290815f8201805461033e90610b48565b80601f016020809104026020016040519081016040528092919081815260200182805461036a90610b48565b80156103b55780601f1061038c576101008083540402835291602001916103b5565b820191905f5260205f20905b81548152906001019060200180831161039857829003601f168201915b505050505081526020016001820180546103ce90610b48565b80601f01602080910402602001604051908101604052809291908181526020018280546103fa90610b48565b80156104455780601f1061041c57610100808354040283529160200191610445565b820191905f5260205f20905b81548152906001019060200180831161042857829003601f168201915b5050505050815260200160028201805461045e90610b48565b80601f016020809104026020016040519081016040528092919081815260200182805461048a90610b48565b80156104d55780601f106104ac576101008083540402835291602001916104d5565b820191905f5260205f20905b8154815290600101906020018083116104b857829003601f168201915b505050505081526020016003820180546104ee90610b48565b80601f016020809104026020016040519081016040528092919081815260200182805461051a90610b48565b80156105655780601f1061053c57610100808354040283529160200191610565565b820191905f5260205f20905b81548152906001019060200180831161054857829003601f168201915b505050505081526020016004820154815250509050919050565b6040518060a00160405280868152602001858152602001848152602001838152602001828152505f808881526020019081526020015f205f820151815f0190816105c99190610d15565b5060208201518160010190816105df9190610d15565b5060408201518160020190816105f59190610d15565b50606082015181600301908161060b9190610d15565b5060808201518160040155905050505050505050565b6040518060a00160405280606081526020016060815260200160608152602001606081526020015f81525090565b5f604051905090565b5f80fd5b5f80fd5b5f819050919050565b61067281610660565b811461067c575f80fd5b50565b5f8135905061068d81610669565b92915050565b5f602082840312156106a8576106a7610658565b5b5f6106b58482850161067f565b91505092915050565b5f81519050919050565b5f82825260208201905092915050565b5f5b838110156106f55780820151818401526020810190506106da565b5f8484015250505050565b5f601f19601f8301169050919050565b5f61071a826106be565b61072481856106c8565b93506107348185602086016106d8565b61073d81610700565b840191505092915050565b5f819050919050565b61075a81610748565b82525050565b5f60a0820190508181035f8301526107788188610710565b9050818103602083015261078c8187610710565b905081810360408301526107a08186610710565b905081810360608301526107b48185610710565b90506107c36080830184610751565b9695505050505050565b5f82825260208201905092915050565b5f6107e7826106be565b6107f181856107cd565b93506108018185602086016106d8565b61080a81610700565b840191505092915050565b61081e81610748565b82525050565b5f60a083015f8301518482035f86015261083e82826107dd565b9150506020830151848203602086015261085882826107dd565b9150506040830151848203604086015261087282826107dd565b9150506060830151848203606086015261088c82826107dd565b91505060808301516108a16080860182610815565b508091505092915050565b5f6020820190508181035f8301526108c48184610824565b905092915050565b5f80fd5b5f80fd5b7f4e487b71000000000000000000000000000000000000000000000000000000005f52604160045260245ffd5b61090a82610700565b810181811067ffffffffffffffff82111715610929576109286108d4565b5b80604052505050565b5f61093b61064f565b90506109478282610901565b919050565b5f67ffffffffffffffff821115610966576109656108d4565b5b61096f82610700565b9050602081019050919050565b828183375f83830152505050565b5f61099c6109978461094c565b610932565b9050828152602081018484840111156109b8576109b76108d0565b5b6109c384828561097c565b509392505050565b5f82601f8301126109df576109de6108cc565b5b81356109ef84826020860161098a565b91505092915050565b610a0181610748565b8114610a0b575f80fd5b50565b5f81359050610a1c816109f8565b92915050565b5f805f805f8060c08789031215610a3c57610a3b610658565b5b5f610a4989828a0161067f565b965050602087013567ffffffffffffffff811115610a6a57610a6961065c565b5b610a7689828a016109cb565b955050604087013567ffffffffffffffff811115610a9757610a9661065c565b5b610aa389828a016109cb565b945050606087013567ffffffffffffffff811115610ac457610ac361065c565b5b610ad089828a016109cb565b935050608087013567ffffffffffffffff811115610af157610af061065c565b5b610afd89828a016109cb565b92505060a0610b0e89828a01610a0e565b9150509295509295509295565b7f4e487b71000000000000000000000000000000000000000000000000000000005f52602260045260245ffd5b5f6002820490506001821680610b5f57607f821691505b602082108103610b7257610b71610b1b565b5b50919050565b5f819050815f5260205f209050919050565b5f6020601f8301049050919050565b5f82821b905092915050565b5f60088302610bd47fffffffffffffffffffffffffffffffffffffffffffffffffffffffffffffffff82610b99565b610bde8683610b99565b95508019841693508086168417925050509392505050565b5f819050919050565b5f610c19610c14610c0f84610748565b610bf6565b610748565b9050919050565b5f819050919050565b610c3283610bff565b610c46610c3e82610c20565b848454610ba5565b825550505050565b5f90565b610c5a610c4e565b610c65818484610c29565b505050565b5b81811015610c8857610c7d5f82610c52565b600181019050610c6b565b5050565b601f821115610ccd57610c9e81610b78565b610ca784610b8a565b81016020851015610cb6578190505b610cca610cc285610b8a565b830182610c6a565b50505b505050565b5f82821c905092915050565b5f610ced5f1984600802610cd2565b1980831691505092915050565b5f610d058383610cde565b9150826002028217905092915050565b610d1e826106be565b67ffffffffffffffff811115610d3757610d366108d4565b5b610d418254610b48565b610d4c828285610c8c565b5f60209050601f831160018114610d7d575f8415610d6b578287015190505b610d758582610cfa565b865550610ddc565b601f198416610d8b86610b78565b5f5b82811015610db257848901518255600182019150602085019450602081019050610d8d565b86831015610dcf5784890151610dcb601f891682610cde565b8355505b6001600288020188555050505b50505050505056fea2646970667358221220dbc60e432e329c58a6b89d87efdeaa08c287728d360c69564625144dc9e0937464736f6c63430008150033",
  "immutableReferences": {},
  "source": "// filepath: contracts/MedicalRecord.sol\r\npragma solidity ^0.8.0;\r\n\r\ncontract MedicalRecord {\r\n    struct Record {\r\n        string patientName;\r\n        string hospitalName;\r\n        string dateOfEstablishment;\r\n        string recordDescription;\r\n        uint256 versionNumber;\r\n    }\r\n\r\n    mapping(bytes32 => Record) public records;\r\n\r\n    function addRecord(bytes32 hash, string memory patientName, string memory hospitalName, string memory dateOfEstablishment, string memory recordDescription, uint256 versionNumber) public {\r\n        records[hash] = Record(patientName, hospitalName, dateOfEstablishment, recordDescription, versionNumber);\r\n    }\r\n\r\n    function getRecord(bytes32 hash) public view returns (Record memory) {\r\n        return records[hash];\r\n    }\r\n}",
  "sourcePath": "C:\\hackaathon_2025\\medchainx\\bcpages\\medchainx-bcpages-backend\\contracts\\contracts\\MedicalRecord.sol",
  "compiler": {
    "name": "solc",
    "version": "0.8.21+commit.d9974bed.Emscripten.clang"
  },
  "schemaVersion": "3.4.16",
  "updatedAt": "2025-03-07T06:38:45.531Z",
  "devdoc": {
    "kind": "dev",
    "methods": {},
    "version": 1
  },
  "userdoc": {
    "kind": "user",
    "methods": {},
    "version": 1
  }
}